:1000000088C0000090C000008EC000008CC00000BE
:100010008AC0000088C0000086C0000084C00000C4
:1000200082C0000080C000007EC000007CC00000D4
:100030007AC0000078C0000076C0000074C00000E4
:1000400072C0000070C000006EC000006CC00000F4
:100050006AC0000068C0000066C0000064C0000004
:1000600062C0000060C000005EC000005CC0000014
:100070005AC0000058C0000056C0000054C0000024
:1000800052C0000050C000004EC000004CC0000034
:100090004AC0000048C0000046C0000044C0000044
:1000A00042C0000040C000003EC000003CC0000054
:1000B0003AC0000038C0000036C0000034C0000064
:1000C00032C0000030C000002EC000002CC0000074
:1000D0002AC0000028C0000026C0000024C0000084
:1000E00022C00000084AD73B3BCE016E84BCBFFD56
:1000F000C12F3D6C74319ABD56833DDA3D00C77FF8
:1001000011BED9E4BB4C3E916BAAAABE0000008090
:100110003F0011241FBECFEFD1E2DEBFCDBF00E014
:100120000CBFF0D067C46CCF84EA8093BC00809190
:10013000BC0087FFFCCF089584E98093BC008091C8
:10014000BC0084FDFCCF08958093BB0084E88093BD
:10015000BC008091BC0087FFFCCF0895882311F07C
:1001600084E801C084EC8093BC008091BC0087FFD0
:10017000FCCF8091BB0008951F93CF93DF931F9214
:10018000CDB7DEB7182F6983CFDF8CE3DDDF812F9A
:10019000DBDF6981862FD8DF0F90DF91CF911F9130
:1001A000CBCF1F93CF93DF93EC01BEDF8DE3CCDF8A
:1001B00080E0D4DF182F80E0D1DF212F30E0322F14
:1001C0002227282B3983288380E0C8DF182F80E07E
:1001D000C5DF212F30E0322F2227282B3D832C83AF
:1001E00080E0BCDF182F81E0B9DF212F30E0322F13
:1001F0002227282B3B832A83DF91CF911F919CCF0D
:10020000CF93C62F6A3011F46DE0FADF8091C00001
:1002100085FFFCCFC093C600CF9108952F923F92E7
:100220004F925F926F927F928F929F92AF92BF9206
:10023000CF92DF92EF92FF920F931F93CF93DF93B2
:10024000CDB7DEB764970FB6F894DEBF0FBECDBF53
:100250008C016A017B01411551056105710519F495
:1002600060E3CEDF35C077FF0AC06DE2C9DFF094EE
:10027000E094D094C094C11CD11CE11CF11CCE01AF
:1002800001965C014C016AE0262E312C412C512C48
:10029000C701B601A20191016FD3F50161935F011E
:1002A0003F016818790869017A01C114D104E10499
:1002B000F10471F76114710459F0F1E06F1A7108DB
:1002C000F401E60DF71D6081605DC80199DFF2CF92
:1002D000C80164960FB6F894DEBF0FBECDBFDF91A4
:1002E000CF911F910F91FF90EF90DF90CF90BF9033
:1002F000AF909F908F907F906F905F904F903F90C6
:100300002F900895CF93DF93CDB7DEB767970FB6E1
:10031000F894DEBF0FBECDBF1092C50087E6809374
:10032000C4008091C0008D7F8093C00086E08093E0
:10033000C20088E18093C1001092B90088E48093E4
:10034000B80060E780E018DF60EB81E015DF60E077
:1003500082E012DFE9DE8CE3F7DE83E0F5DEECDE3F
:10036000CE0101961EDFC980DA80EB80FC80C114CB
:10037000D10449F4F7FE3FC0C12CD12CE4EBEE2EA2
:10038000E2E4FE2E3EC0B701882777FD8095982FC6
:10039000B1D14B015C01B601882777FD8095982F7C
:1003A000A9D19B01AC01C501B40109D1DCD020E089
:1003B00030E044E353E47AD22BED3FE049E450E4EB
:1003C000FED09B01AC01D7FE05C060E070E084E385
:1003D00093E40DC0F7FE07C06B017C01F7FAF094BF
:1003E000F7F8F0940EC060E070E084EB93E456D030
:1003F0006B017C0106C0C12CD12C77E8E72E73E499
:10040000F72EC701B60143D1AB01BC01CE0147961F
:1004100005DF20E030E0A901C701B601CCD087FF9D
:1004200004C0F7FAF094F7F8F0946EE2CE01479624
:10043000E7DEC701B6012BD15DD19B01AC01C7013D
:10044000B6012CD06B017C0122D14B015C0152D151
:100450009B01AC01C701B60121D020E030E0A90129
:10046000AAD0882341F020E030E040E251E4C70107
:10047000B6011CD2E7CFB501A401CE014796CEDE6E
:100480006AE0CE014796BCDE2FEF89E698E1215065
:1004900080409040E1F700C000005CCF5058BB277F
:1004A000AA270ED0C2C1B3D130F0B8D120F031F4B8
:1004B0009F3F11F41EF483C10EF4E095E7FB79C170
:1004C000E92FC4D180F3BA17620773078407950731
:1004D00018F071F49EF5DCC10EF4E0950B2EBA2FE6
:1004E000A02D0B01B90190010C01CA01A00111243A
:1004F000FF27591B99F0593F50F4503E68F11A16E6
:10050000F040A22F232F342F4427585FF3CF469576
:1005100037952795A795F0405395C9F77EF41F1698
:10052000BA0B620B730B840BBAF09150A1F0FF0F62
:10053000BB1F661F771F881FC2F70EC0BA0F621F4E
:10054000731F841F48F4879577956795B795F7953E
:100550009E3F08F0B3CF9395880F08F09927EE0FD0
:10056000979587950895DF93DD27B92FBF7740E8EA
:100570005FE31616170648075B0710F4D92F8FD1D3
:100580009F938F937F936F93F4D1E4EEF0E01AD1B1
:100590004CD12F913F914F915F9194D1DD2349F040
:1005A0009058A2EA2AED3FE049EC5FE3D0785D275E
:1005B00087DFDF913AC1D9D008F481E008950CD0EB
:1005C00034C12CD140F023D130F021F45F3F19F039
:1005D000F0C051115EC1F3C039D198F39923C9F32A
:1005E0005523B1F3951B550BBB27AA276217730739
:1005F000840738F09F5F5F4F220F331F441FAA1FED
:10060000A9F333D00E2E3AF0E0E830D091505040AC
:10061000E695001CCAF729D0FE2F27D0660F771F5A
:10062000881FBB1F261737074807AB07B0E809F03C
:10063000BB0B802DBF01FF2793585F4F2AF09E3FD1
:10064000510568F0B6C025C15F3FECF3983EDCF37E
:10065000869577956795B795F7959F5FC9F7880F4A
:10066000911D9695879597F90895E1E0660F771F9C
:10067000881FBB1F621773078407BA0720F0621B2D
:10068000730B840BBA0BEE1F88F7E095089504D026
:100690006894B111FEC00895E1D088F09F5790F0A2
:1006A000B92F9927B751A0F0D1F0660F771F881F97
:1006B000991F1AF0BA95C9F712C0B13081F0E8D08D
:1006C000B1E00895E5C0672F782F8827B85F39F02B
:1006D000B93FCCF3869577956795B395D9F73EF4F6
:1006E00090958095709561957F4F8F4F9F4F08959E
:1006F000E89409C097FB3EF49095809570956195BC
:100700007F4F8F4F9F4F9923A9F0F92F96E9BB2771
:100710009395F695879577956795B795F111F8CFED
:10072000FAF4BB0F11F460FF1BC06F5F7F4F8F4F58
:100730009F4F16C0882311F096E911C0772321F04E
:100740009EE8872F762F05C0662371F096E8862FE6
:1007500070E060E02AF09A95660F771F881FDAF73D
:10076000880F9695879597F90895990F0008550F6A
:10077000AA0BE0E8FEEF16161706E807F907C0F027
:1007800012161306E407F50798F0621B730B840B2F
:10079000950B39F40A2661F0232B242B252B21F409
:1007A00008950A2609F4A140A6958FEF811D811DA9
:1007B000089597F99F6780E870E060E008959FEFE3
:1007C00080EC0895DF93CF931F930F93FF92EF92E6
:1007D000DF927B018C01689405C0DA2EEF0172D0A4
:1007E000FE01E894A5912591359145915591AEF37F
:1007F000EF0166DEFE019701A801DA9479F7DF9038
:10080000EF90FF900F911F91CF91DF9108950024F9
:100810000A941616170618060906089500240A9465
:1008200012161306140605060895092E0394000CEB
:1008300011F4882352F0BB0F40F4BF2B11F460FF7A
:1008400004C06F5F7F4F8F4F9F4F089557FD9058A3
:10085000440F551F59F05F3F71F04795880F97FB84
:10086000991F61F09F3F79F087950895121613063E
:100870001406551FF2CF4695F1DF08C0161617066D
:100880001806991FF1CF86957105610508940895A2
:10089000E894BB2766277727CB0197F908959B013A
:1008A000AC0160E070E080E89FE389CE0BD0BDCF63
:1008B000AEDF28F0B3DF18F0952309F07ACF7FCFB1
:1008C0001124E7CFC3DFA0F3959FD1F3950F50E03C
:1008D000551F629FF001729FBB27F00DB11D639FF2
:1008E000AA27F00DB11DAA1F649F6627B00DA11D98
:1008F000661F829F2227B00DA11D621F739FB00D3E
:10090000A11D621F839FA00D611D221F749F3327AD
:10091000A00D611D231F849F600D211D822F762F46
:100920006A2F11249F5750408AF0E1F088234AF043
:10093000EE0FFF1FBB1F661F771F881F915050408F
:10094000A9F79E3F510570F034CFA3CF5F3FECF382
:10095000983EDCF3869577956795B795F795E7957B
:100960009F5FC1F7FE2B880F911D9695879597F98C
:1009700008959B01AC019ACF052E97FB16F40094C5
:100980000FD057FD05D014D007FC02D046F408C0A4
:1009900050954095309521953F4F4F4F5F4F0895AB
:1009A00090958095709561957F4F8F4F9F4F0895DB
:1009B000A1E21A2EAA1BBB1BFD010DC0AA1FBB1F63
:1009C000EE1FFF1FA217B307E407F50720F0A21BD5
:1009D000B30BE40BF50B661F771F881F991F1A9442
:1009E00069F760957095809590959B01AC01BD016C
:0809F000CF010895F894FFCF38
:00000001FF
